{
  "_format": "hh-sol-artifact-1",
  "contractName": "BookStore",
  "sourceName": "contracts/BookStore.sol",
  "abi": [
    {
      "inputs": [],
      "stateMutability": "nonpayable",
      "type": "constructor"
    },
    {
      "inputs": [
        {
          "internalType": "uint256",
          "name": "count",
          "type": "uint256"
        }
      ],
      "name": "AllCopiesReturned",
      "type": "error"
    },
    {
      "inputs": [],
      "name": "BookOutOfStock",
      "type": "error"
    },
    {
      "anonymous": false,
      "inputs": [
        {
          "indexed": true,
          "internalType": "string",
          "name": "name",
          "type": "string"
        },
        {
          "indexed": true,
          "internalType": "address",
          "name": "renter",
          "type": "address"
        }
      ],
      "name": "BookRented",
      "type": "event"
    },
    {
      "anonymous": false,
      "inputs": [
        {
          "indexed": true,
          "internalType": "string",
          "name": "name",
          "type": "string"
        },
        {
          "indexed": true,
          "internalType": "address",
          "name": "renter",
          "type": "address"
        }
      ],
      "name": "BookReturned",
      "type": "event"
    },
    {
      "anonymous": false,
      "inputs": [
        {
          "indexed": true,
          "internalType": "string",
          "name": "name",
          "type": "string"
        },
        {
          "indexed": false,
          "internalType": "uint256",
          "name": "count",
          "type": "uint256"
        }
      ],
      "name": "NewBookAdded",
      "type": "event"
    },
    {
      "anonymous": false,
      "inputs": [
        {
          "indexed": true,
          "internalType": "address",
          "name": "previousOwner",
          "type": "address"
        },
        {
          "indexed": true,
          "internalType": "address",
          "name": "newOwner",
          "type": "address"
        }
      ],
      "name": "OwnershipTransferred",
      "type": "event"
    },
    {
      "anonymous": false,
      "inputs": [
        {
          "indexed": true,
          "internalType": "address",
          "name": "owner",
          "type": "address"
        },
        {
          "indexed": false,
          "internalType": "uint256",
          "name": "amount",
          "type": "uint256"
        }
      ],
      "name": "TokenWithDrawal",
      "type": "event"
    },
    {
      "anonymous": false,
      "inputs": [
        {
          "indexed": true,
          "internalType": "address",
          "name": "owner",
          "type": "address"
        },
        {
          "indexed": false,
          "internalType": "uint256",
          "name": "amount",
          "type": "uint256"
        }
      ],
      "name": "TokensBurned",
      "type": "event"
    },
    {
      "anonymous": false,
      "inputs": [
        {
          "indexed": true,
          "internalType": "address",
          "name": "owner",
          "type": "address"
        },
        {
          "indexed": false,
          "internalType": "uint256",
          "name": "amount",
          "type": "uint256"
        }
      ],
      "name": "TokensMinted",
      "type": "event"
    },
    {
      "inputs": [],
      "name": "LIB",
      "outputs": [
        {
          "internalType": "contract LIBToken",
          "name": "",
          "type": "address"
        }
      ],
      "stateMutability": "view",
      "type": "function"
    },
    {
      "inputs": [
        {
          "internalType": "string",
          "name": "_name",
          "type": "string"
        },
        {
          "internalType": "uint256",
          "name": "_count",
          "type": "uint256"
        }
      ],
      "name": "addBook",
      "outputs": [],
      "stateMutability": "nonpayable",
      "type": "function"
    },
    {
      "inputs": [
        {
          "internalType": "uint256",
          "name": "",
          "type": "uint256"
        }
      ],
      "name": "availableBooks",
      "outputs": [
        {
          "internalType": "string",
          "name": "",
          "type": "string"
        }
      ],
      "stateMutability": "view",
      "type": "function"
    },
    {
      "inputs": [
        {
          "internalType": "string",
          "name": "",
          "type": "string"
        }
      ],
      "name": "checkBook",
      "outputs": [
        {
          "internalType": "bool",
          "name": "",
          "type": "bool"
        }
      ],
      "stateMutability": "view",
      "type": "function"
    },
    {
      "inputs": [
        {
          "internalType": "string",
          "name": "",
          "type": "string"
        }
      ],
      "name": "checkBookCount",
      "outputs": [
        {
          "internalType": "uint256",
          "name": "",
          "type": "uint256"
        }
      ],
      "stateMutability": "view",
      "type": "function"
    },
    {
      "inputs": [
        {
          "internalType": "bytes32",
          "name": "hashedMessage",
          "type": "bytes32"
        },
        {
          "internalType": "uint8",
          "name": "v",
          "type": "uint8"
        },
        {
          "internalType": "bytes32",
          "name": "r",
          "type": "bytes32"
        },
        {
          "internalType": "bytes32",
          "name": "s",
          "type": "bytes32"
        },
        {
          "internalType": "address",
          "name": "renter",
          "type": "address"
        },
        {
          "internalType": "string",
          "name": "_bookName",
          "type": "string"
        }
      ],
      "name": "delegateRentBook",
      "outputs": [],
      "stateMutability": "payable",
      "type": "function"
    },
    {
      "inputs": [],
      "name": "owner",
      "outputs": [
        {
          "internalType": "address",
          "name": "",
          "type": "address"
        }
      ],
      "stateMutability": "view",
      "type": "function"
    },
    {
      "inputs": [
        {
          "internalType": "string",
          "name": "_bookName",
          "type": "string"
        },
        {
          "internalType": "uint256",
          "name": "value",
          "type": "uint256"
        },
        {
          "internalType": "uint256",
          "name": "deadline",
          "type": "uint256"
        },
        {
          "internalType": "uint8",
          "name": "v",
          "type": "uint8"
        },
        {
          "internalType": "bytes32",
          "name": "r",
          "type": "bytes32"
        },
        {
          "internalType": "bytes32",
          "name": "s",
          "type": "bytes32"
        }
      ],
      "name": "permitRentBook",
      "outputs": [],
      "stateMutability": "nonpayable",
      "type": "function"
    },
    {
      "inputs": [],
      "name": "renounceOwnership",
      "outputs": [],
      "stateMutability": "nonpayable",
      "type": "function"
    },
    {
      "inputs": [
        {
          "internalType": "string",
          "name": "_name",
          "type": "string"
        }
      ],
      "name": "rentBook",
      "outputs": [],
      "stateMutability": "payable",
      "type": "function"
    },
    {
      "inputs": [
        {
          "internalType": "string",
          "name": "_name",
          "type": "string"
        }
      ],
      "name": "returnBook",
      "outputs": [],
      "stateMutability": "nonpayable",
      "type": "function"
    },
    {
      "inputs": [],
      "name": "showAvailable",
      "outputs": [
        {
          "internalType": "string[]",
          "name": "",
          "type": "string[]"
        }
      ],
      "stateMutability": "view",
      "type": "function"
    },
    {
      "inputs": [
        {
          "internalType": "string",
          "name": "_name",
          "type": "string"
        }
      ],
      "name": "showRenters",
      "outputs": [
        {
          "internalType": "address[]",
          "name": "",
          "type": "address[]"
        }
      ],
      "stateMutability": "view",
      "type": "function"
    },
    {
      "inputs": [
        {
          "internalType": "address",
          "name": "newOwner",
          "type": "address"
        }
      ],
      "name": "transferOwnership",
      "outputs": [],
      "stateMutability": "nonpayable",
      "type": "function"
    },
    {
      "inputs": [
        {
          "internalType": "uint256",
          "name": "value",
          "type": "uint256"
        }
      ],
      "name": "unwrap",
      "outputs": [],
      "stateMutability": "nonpayable",
      "type": "function"
    },
    {
      "inputs": [],
      "name": "withdrawCoins",
      "outputs": [],
      "stateMutability": "nonpayable",
      "type": "function"
    },
    {
      "inputs": [],
      "name": "wrap",
      "outputs": [],
      "stateMutability": "payable",
      "type": "function"
    },
    {
      "inputs": [
        {
          "internalType": "bytes32",
          "name": "hashedMessage",
          "type": "bytes32"
        },
        {
          "internalType": "uint8",
          "name": "v",
          "type": "uint8"
        },
        {
          "internalType": "bytes32",
          "name": "r",
          "type": "bytes32"
        },
        {
          "internalType": "bytes32",
          "name": "s",
          "type": "bytes32"
        },
        {
          "internalType": "address",
          "name": "receiver",
          "type": "address"
        }
      ],
      "name": "wrapWithSignature",
      "outputs": [],
      "stateMutability": "payable",
      "type": "function"
    }
  ],
  "bytecode": "0x60806040523480156200001157600080fd5b506200001d336200006f565b6040516200002b90620000bf565b604051809103906000f08015801562000048573d6000803e3d6000fd5b50600180546001600160a01b0319166001600160a01b0392909216919091179055620000cd565b600080546001600160a01b038381166001600160a01b0319831681178455604051919092169283917f8be0079c531659141344cd1fd0a4f28419497f9722a3daafe3b4186f6b6457e09190a35050565b61205d806200204883390190565b611f6b80620000dd6000396000f3fe6080604052600436106101095760003560e01c80639fe8c07d11610095578063de0e9a3e11610064578063de0e9a3e146102ca578063ed33f649146102ea578063f2fde38b14610330578063f9a96a8014610350578063ffbb62a31461037257600080fd5b80639fe8c07d146102445780639ffcc62c14610257578063bd4f133014610277578063d46eb119146102c257600080fd5b8063715018a6116100dc578063715018a61461019957806379885b91146101ae57806380ee187d146101e65780638da5cb5b146101f95780639452f09d1461021757600080fd5b80631ef49a8c1461010e5780634fceb610146101305780635a02113914610143578063637a387214610179575b600080fd5b34801561011a57600080fd5b5061012e610129366004611aa4565b610387565b005b61012e61013e366004611a22565b6104db565b34801561014f57600080fd5b5061016361015e366004611c5d565b6107a9565b6040516101709190611dbf565b60405180910390f35b34801561018557600080fd5b5061012e610194366004611ae6565b610855565b3480156101a557600080fd5b5061012e610a65565b3480156101ba57600080fd5b506001546101ce906001600160a01b031681565b6040516001600160a01b039091168152602001610170565b61012e6101f4366004611aa4565b610a79565b34801561020557600080fd5b506000546001600160a01b03166101ce565b34801561022357600080fd5b50610237610232366004611aa4565b610cf2565b6040516101709190611d10565b61012e6102523660046119d2565b610d72565b34801561026357600080fd5b5061012e610272366004611b32565b610e87565b34801561028357600080fd5b506102b2610292366004611bac565b805160208183018101805160038252928201919093012091525460ff1681565b6040519015158152602001610170565b61012e61114b565b3480156102d657600080fd5b5061012e6102e5366004611c5d565b611205565b3480156102f657600080fd5b50610322610305366004611bac565b805160208183018101805160048252928201919093012091525481565b604051908152602001610170565b34801561033c57600080fd5b5061012e61034b36600461198e565b611371565b34801561035c57600080fd5b506103656113ea565b6040516101709190611d5d565b34801561037e57600080fd5b5061012e6114c3565b81816003828260405161039b929190611cdc565b9081526040519081900360200190205460ff166103d35760405162461bcd60e51b81526004016103ca90611e3b565b60405180910390fd5b600584846040516103e5929190611cdc565b90815260200160405180910390206001015460048585604051610409929190611cdc565b908152602001604051809103902054141561045d5760058484604051610430929190611cdc565b90815260405190819003602001812060010154637ed5445160e11b82526103ca9160040190815260200190565b600160048585604051610471929190611cdc565b9081526020016040518091039020600082825461048e9190611e9f565b909155505060405133906104a59086908690611cdc565b604051908190038120907ff1b2f3d040d6eaa2f46fc6969cded1c5e090aed7039a4e447f1f02aeda4067c590600090a350505050565b8181600382826040516104ef929190611cdc565b9081526040519081900360200190205460ff1661051e5760405162461bcd60e51b81526004016103ca90611e3b565b6001546040516370a0823160e01b815233600482015267016345785d8a0000916001600160a01b0316906370a082319060240160206040518083038186803b15801561056957600080fd5b505afa15801561057d573d6000803e3d6000fd5b505050506040513d601f19601f820116820180604052508101906105a19190611c76565b116105be5760405162461bcd60e51b81526004016103ca90611dd2565b8888888888806001600160a01b03166105d986868686611657565b6001600160a01b0316146105ff5760405162461bcd60e51b81526004016103ca90611dfa565b600160048a8a604051610613929190611cdc565b908152602001604051809103902054101561064157604051630326266960e01b815260040160405180910390fd5b6001546040516323b872dd60e01b81526001600160a01b03909116906323b872dd9061067d903390309067016345785d8a000090600401611cec565b602060405180830381600087803b15801561069757600080fd5b505af11580156106ab573d6000803e3d6000fd5b505050506040513d601f19601f820116820180604052508101906106cf91906119b0565b50600160048a8a6040516106e4929190611cdc565b908152602001604051809103902060008282546107019190611eb7565b9091555050604051600590610719908b908b90611cdc565b9081526040519081900360209081018220600201805460018101825560009182529190200180546001600160a01b038d166001600160a01b0319909116811790915590610769908b908b90611cdc565b604051908190038120907f0fb11443e58e543bd5d0a89fa2d48ca98beaa703edd7f05d32f518f1a084e54490600090a35050505050505050505050505050565b600281815481106107b957600080fd5b9060005260206000200160009150905080546107d490611ece565b80601f016020809104026020016040519081016040528092919081815260200182805461080090611ece565b801561084d5780601f106108225761010080835404028352916020019161084d565b820191906000526020600020905b81548152906001019060200180831161083057829003601f168201915b505050505081565b61085d61170c565b6003838360405161086f929190611cdc565b9081526040519081900360200190205460ff16156108c55760405162461bcd60e51b8152602060048201526013602482015272426f6f6b20616c72656164792065786973747360681b60448201526064016103ca565b60606000604051806060016040528086868080601f0160208091040260200160405190810160405280939291908181526020018383808284376000920182905250938552505050602082018690526040909101849052600280546001810182559152909150610957907f405787fa12a823e0f2b7631cc41b3ba8828b3321ca811111fa75cd3aa3bb5ace0186866117b6565b5060016003868660405161096c929190611cdc565b908152604051908190036020018120805492151560ff1990931692909217909155839060049061099f9088908890611cdc565b90815260200160405180910390208190555080600586866040516109c4929190611cdc565b908152602001604051809103902060008201518160000190805190602001906109ee92919061183a565b50602082810151600183015560408301518051610a1192600285019201906118ae565b5050604051610a24915086908690611cdc565b604051908190038120848252907f0608ced071989c87e8d0772d5c7b602aae42380b59ebdfa3641591884b8985159060200160405180910390a25050505050565b610a6d61170c565b610a776000611766565b565b818160038282604051610a8d929190611cdc565b9081526040519081900360200190205460ff16610abc5760405162461bcd60e51b81526004016103ca90611e3b565b6001546040516370a0823160e01b815233600482015267016345785d8a0000916001600160a01b0316906370a082319060240160206040518083038186803b158015610b0757600080fd5b505afa158015610b1b573d6000803e3d6000fd5b505050506040513d601f19601f82011682018060405250810190610b3f9190611c76565b11610b5c5760405162461bcd60e51b81526004016103ca90611dd2565b600160048585604051610b70929190611cdc565b9081526020016040518091039020541015610b9e57604051630326266960e01b815260040160405180910390fd5b6001546040516323b872dd60e01b81526001600160a01b03909116906323b872dd90610bda903390309067016345785d8a000090600401611cec565b602060405180830381600087803b158015610bf457600080fd5b505af1158015610c08573d6000803e3d6000fd5b505050506040513d601f19601f82011682018060405250810190610c2c91906119b0565b50600160048585604051610c41929190611cdc565b90815260200160405180910390206000828254610c5e9190611eb7565b9091555050604051600590610c769086908690611cdc565b9081526040519081900360209081018220600201805460018101825560009182529190200180546001600160a01b0319163390811790915590610cbc9086908690611cdc565b604051908190038120907f0fb11443e58e543bd5d0a89fa2d48ca98beaa703edd7f05d32f518f1a084e54490600090a350505050565b606060058383604051610d06929190611cdc565b9081526040805191829003602090810183206002018054808302850183019093528284529190830182828015610d6557602002820191906000526020600020905b81546001600160a01b03168152600190910190602001808311610d47575b5050505050905092915050565b8484848484806001600160a01b0316610d8d86868686611657565b6001600160a01b031614610db35760405162461bcd60e51b81526004016103ca90611dfa565b60003411610dd35760405162461bcd60e51b81526004016103ca90611e68565b6001546040516340c10f1960e01b81526001600160a01b038881166004830152346024830152909116906340c10f1990604401600060405180830381600087803b158015610e2057600080fd5b505af1158015610e34573d6000803e3d6000fd5b50505050856001600160a01b03167f3f2c9d57c068687834f0de942a9babb9e5acab57d516d3480a3c16ee165a427334604051610e7391815260200190565b60405180910390a250505050505050505050565b868660038282604051610e9b929190611cdc565b9081526040519081900360200190205460ff16610eca5760405162461bcd60e51b81526004016103ca90611e3b565b6001546040516370a0823160e01b815233600482015267016345785d8a0000916001600160a01b0316906370a082319060240160206040518083038186803b158015610f1557600080fd5b505afa158015610f29573d6000803e3d6000fd5b505050506040513d601f19601f82011682018060405250810190610f4d9190611c76565b11610f6a5760405162461bcd60e51b81526004016103ca90611dd2565b60015460405163d505accf60e01b8152336004820152306024820152604481018990526064810188905260ff8716608482015260a4810186905260c481018590526001600160a01b039091169063d505accf9060e401600060405180830381600087803b158015610fda57600080fd5b505af1158015610fee573d6000803e3d6000fd5b50506001546040516323b872dd60e01b81526001600160a01b0390911692506323b872dd915061102e903390309067016345785d8a000090600401611cec565b602060405180830381600087803b15801561104857600080fd5b505af115801561105c573d6000803e3d6000fd5b505050506040513d601f19601f8201168201806040525081019061108091906119b0565b50600160048a8a604051611095929190611cdc565b908152602001604051809103902060008282546110b29190611eb7565b90915550506040516005906110ca908b908b90611cdc565b9081526040519081900360209081018220600201805460018101825560009182529190200180546001600160a01b0319163390811790915590611110908b908b90611cdc565b604051908190038120907f0fb11443e58e543bd5d0a89fa2d48ca98beaa703edd7f05d32f518f1a084e54490600090a3505050505050505050565b6000341161116b5760405162461bcd60e51b81526004016103ca90611e68565b6001546040516340c10f1960e01b81523360048201523460248201526001600160a01b03909116906340c10f1990604401600060405180830381600087803b1580156111b657600080fd5b505af11580156111ca573d6000803e3d6000fd5b50506040513481523392507f3f2c9d57c068687834f0de942a9babb9e5acab57d516d3480a3c16ee165a4273915060200160405180910390a2565b600081116112255760405162461bcd60e51b81526004016103ca90611e68565b6001546040516323b872dd60e01b81526001600160a01b03909116906323b872dd9061125990339030908690600401611cec565b602060405180830381600087803b15801561127357600080fd5b505af1158015611287573d6000803e3d6000fd5b505050506040513d601f19601f820116820180604052508101906112ab91906119b0565b50600154604051630852cd8d60e31b8152600481018390526001600160a01b03909116906342966c6890602401600060405180830381600087803b1580156112f257600080fd5b505af1158015611306573d6000803e3d6000fd5b505060405133925083156108fc02915083906000818181858888f19350505050158015611337573d6000803e3d6000fd5b5060405181815233907ffd38818f5291bf0bb3a2a48aadc06ba8757865d1dabd804585338aab3009dcb6906020015b60405180910390a250565b61137961170c565b6001600160a01b0381166113de5760405162461bcd60e51b815260206004820152602660248201527f4f776e61626c653a206e6577206f776e657220697320746865207a65726f206160448201526564647265737360d01b60648201526084016103ca565b6113e781611766565b50565b60606002805480602002602001604051908101604052809291908181526020016000905b828210156114ba57838290600052602060002001805461142d90611ece565b80601f016020809104026020016040519081016040528092919081815260200182805461145990611ece565b80156114a65780601f1061147b576101008083540402835291602001916114a6565b820191906000526020600020905b81548152906001019060200180831161148957829003601f168201915b50505050508152602001906001019061140e565b50505050905090565b6114cb61170c565b6001546040516370a0823160e01b81523060048201526000916001600160a01b0316906370a082319060240160206040518083038186803b15801561150f57600080fd5b505afa158015611523573d6000803e3d6000fd5b505050506040513d601f19601f820116820180604052508101906115479190611c76565b9050600181116115995760405162461bcd60e51b815260206004820152601e60248201527f4e6f7420656e6f7567682062616c616e636520746f207769746864726177000060448201526064016103ca565b600154604051630852cd8d60e31b8152600481018390526001600160a01b03909116906342966c6890602401600060405180830381600087803b1580156115df57600080fd5b505af11580156115f3573d6000803e3d6000fd5b505060405133925083156108fc02915083906000818181858888f19350505050158015611624573d6000803e3d6000fd5b5060405181815233907fc865dcc5cbfc1d5c1e930bf117099a43e48694e4e4658befe7b2c27f6d64153c90602001611366565b6040517f19457468657265756d205369676e6564204d6573736167653a0a3332000000006020820152603c81018590526000908190605c0160408051601f1981840301815282825280516020918201206000845290830180835281905260ff8816918301919091526060820186905260808201859052915060019060a0016020604051602081039080840390855afa1580156116f7573d6000803e3d6000fd5b5050604051601f190151979650505050505050565b6000546001600160a01b03163314610a775760405162461bcd60e51b815260206004820181905260248201527f4f776e61626c653a2063616c6c6572206973206e6f7420746865206f776e657260448201526064016103ca565b600080546001600160a01b038381166001600160a01b0319831681178455604051919092169283917f8be0079c531659141344cd1fd0a4f28419497f9722a3daafe3b4186f6b6457e09190a35050565b8280546117c290611ece565b90600052602060002090601f0160209004810192826117e4576000855561182a565b82601f106117fd5782800160ff1982351617855561182a565b8280016001018555821561182a579182015b8281111561182a57823582559160200191906001019061180f565b50611836929150611903565b5090565b82805461184690611ece565b90600052602060002090601f016020900481019282611868576000855561182a565b82601f1061188157805160ff191683800117855561182a565b8280016001018555821561182a579182015b8281111561182a578251825591602001919060010190611893565b82805482825590600052602060002090810192821561182a579160200282015b8281111561182a57825182546001600160a01b0319166001600160a01b039091161782556020909201916001909101906118ce565b5b808211156118365760008155600101611904565b80356001600160a01b038116811461192f57600080fd5b919050565b60008083601f84011261194657600080fd5b50813567ffffffffffffffff81111561195e57600080fd5b60208301915083602082850101111561197657600080fd5b9250929050565b803560ff8116811461192f57600080fd5b6000602082840312156119a057600080fd5b6119a982611918565b9392505050565b6000602082840312156119c257600080fd5b815180151581146119a957600080fd5b600080600080600060a086880312156119ea57600080fd5b853594506119fa6020870161197d565b93506040860135925060608601359150611a1660808701611918565b90509295509295909350565b600080600080600080600060c0888a031215611a3d57600080fd5b87359650611a4d6020890161197d565b95506040880135945060608801359350611a6960808901611918565b925060a088013567ffffffffffffffff811115611a8557600080fd5b611a918a828b01611934565b989b979a50959850939692959293505050565b60008060208385031215611ab757600080fd5b823567ffffffffffffffff811115611ace57600080fd5b611ada85828601611934565b90969095509350505050565b600080600060408486031215611afb57600080fd5b833567ffffffffffffffff811115611b1257600080fd5b611b1e86828701611934565b909790965060209590950135949350505050565b600080600080600080600060c0888a031215611b4d57600080fd5b873567ffffffffffffffff811115611b6457600080fd5b611b708a828b01611934565b9098509650506020880135945060408801359350611b906060890161197d565b92506080880135915060a0880135905092959891949750929550565b600060208284031215611bbe57600080fd5b813567ffffffffffffffff80821115611bd657600080fd5b818401915084601f830112611bea57600080fd5b813581811115611bfc57611bfc611f1f565b604051601f8201601f19908116603f01168101908382118183101715611c2457611c24611f1f565b81604052828152876020848701011115611c3d57600080fd5b826020860160208301376000928101602001929092525095945050505050565b600060208284031215611c6f57600080fd5b5035919050565b600060208284031215611c8857600080fd5b5051919050565b6000815180845260005b81811015611cb557602081850181015186830182015201611c99565b81811115611cc7576000602083870101525b50601f01601f19169290920160200192915050565b8183823760009101908152919050565b6001600160a01b039384168152919092166020820152604081019190915260600190565b6020808252825182820181905260009190848201906040850190845b81811015611d515783516001600160a01b031683529284019291840191600101611d2c565b50909695505050505050565b6000602080830181845280855180835260408601915060408160051b870101925083870160005b82811015611db257603f19888603018452611da0858351611c8f565b94509285019290850190600101611d84565b5092979650505050505050565b6020815260006119a96020830184611c8f565b6020808252600e908201526d2737ba1032b737bab3b4102624a160911b604082015260600190565b60208082526021908201527f526563656976657220646964206e6f74207369676e20746865206d65737361676040820152606560f81b606082015260800190565b602080825260139082015272426f6f6b20646f65736e27742065786973747360681b604082015260600190565b6020808252601c908201527f4d696e696d756d206f6620312057454920697320726571756972656400000000604082015260600190565b60008219821115611eb257611eb2611f09565b500190565b600082821015611ec957611ec9611f09565b500390565b600181811c90821680611ee257607f821691505b60208210811415611f0357634e487b7160e01b600052602260045260246000fd5b50919050565b634e487b7160e01b600052601160045260246000fd5b634e487b7160e01b600052604160045260246000fdfea2646970667358221220cd1c941e5373c33a8adca2c70da13dea787be50adf837506e5e547fb55ed049164736f6c6343000806003360806040523480156200001157600080fd5b50604080518082018252600d81526c2634b13930b93c902a37b5b2b760991b6020808301918252835180850190945260038452622624a160e91b90840152815191929183918391620000669160059162000329565b5080516200007c90600690602084019062000329565b50506007805460ff191690555062000096600033620001c4565b620000c27f9f2df0fed2c77648de5860a4cc508cd0818c85b8b8a1ab4ceeef8d981c8956a633620001c4565b620000ee7f65d7a28e3265b37a6474929f336521b332c1681b933f6cb9f3376673440d862a33620001c4565b5050604080518082018252600d81526c2634b13930b93c902a37b5b2b760991b6020918201528151808301835260018152603160f81b9082015281517f91ab3d17e3a50a9d89e63fd30b92be7f5336b03b287bb946787a83a9d62a2766818301527f33c6b5a795bbb6d3634a57e4c285ad6fb137be7c7195686eba4a862088a5df7e818401527fc89efdaa54c0f20c7adf612882df0950f5a951637e0307cdcb4c672f298b8bc66060820152306080808301919091528351808303909101815260a090910190925281519101206008556200040c565b620001d08282620001d4565b5050565b620001eb82826200021760201b62000bf61760201c565b60008281526001602090815260409091206200021291839062000c7a620002b7821b17901c565b505050565b6000828152602081815260408083206001600160a01b038516845290915290205460ff16620001d0576000828152602081815260408083206001600160a01b03851684529091529020805460ff19166001179055620002733390565b6001600160a01b0316816001600160a01b0316837f2f8788117e7eff1d82e926ec794901d17c78024a50270940304540a733656f0d60405160405180910390a45050565b6000620002ce836001600160a01b038416620002d7565b90505b92915050565b60008181526001830160205260408120546200032057508154600181810184556000848152602080822090930184905584548482528286019093526040902091909155620002d1565b506000620002d1565b8280546200033790620003cf565b90600052602060002090601f0160209004810192826200035b5760008555620003a6565b82601f106200037657805160ff1916838001178555620003a6565b82800160010185558215620003a6579182015b82811115620003a657825182559160200191906001019062000389565b50620003b4929150620003b8565b5090565b5b80821115620003b45760008155600101620003b9565b600181811c90821680620003e457607f821691505b602082108114156200040657634e487b7160e01b600052602260045260246000fd5b50919050565b611c41806200041c6000396000f3fe608060405234801561001057600080fd5b50600436106101f05760003560e01c806370a082311161010f578063a457c2d7116100a2578063d539139311610071578063d53913931461043e578063d547741f14610465578063dd62ed3e14610478578063e63ab1e91461048b57600080fd5b8063a457c2d7146103f2578063a9059cbb14610405578063ca15c87314610418578063d505accf1461042b57600080fd5b80639010d07c116100de5780639010d07c146103a457806391d14854146103cf57806395d89b41146103e2578063a217fddf146103ea57600080fd5b806370a082311461034057806379cc6790146103695780637ecebe001461037c5780638456cb591461039c57600080fd5b8063313ce567116101875780633f4ba83a116101565780633f4ba83a1461030757806340c10f191461030f57806342966c68146103225780635c975abb1461033557600080fd5b8063313ce567146102c95780633644e515146102d857806336568abe146102e157806339509351146102f457600080fd5b806323b872dd116101c357806323b872dd14610257578063248a9ca31461026a5780632f2ff15d1461028d57806330adf81f146102a257600080fd5b806301ffc9a7146101f557806306fdde031461021d578063095ea7b31461023257806318160ddd14610245575b600080fd5b6102086102033660046119fa565b6104b2565b60405190151581526020015b60405180910390f35b6102256104dd565b6040516102149190611a99565b610208610240366004611972565b61056f565b6004545b604051908152602001610214565b6102086102653660046118c3565b610587565b61024961027836600461199c565b60009081526020819052604090206001015490565b6102a061029b3660046119b5565b6105ab565b005b6102497f6e71edae12b1b97f4d1f60370fef10105fa2faae0126114a169c64845d6126c981565b60405160128152602001610214565b61024960085481565b6102a06102ef3660046119b5565b6105d5565b610208610302366004611972565b610658565b6102a061067a565b6102a061031d366004611972565b610720565b6102a061033036600461199c565b6107bf565b60075460ff16610208565b61024961034e366004611875565b6001600160a01b031660009081526002602052604090205490565b6102a0610377366004611972565b6107cc565b61024961038a366004611875565b60096020526000908152604090205481565b6102a06107e1565b6103b76103b23660046119d8565b610885565b6040516001600160a01b039091168152602001610214565b6102086103dd3660046119b5565b6108a4565b6102256108cd565b610249600081565b610208610400366004611972565b6108dc565b610208610413366004611972565b610957565b61024961042636600461199c565b610965565b6102a06104393660046118ff565b61097c565b6102497f9f2df0fed2c77648de5860a4cc508cd0818c85b8b8a1ab4ceeef8d981c8956a681565b6102a06104733660046119b5565b610ba6565b610249610486366004611890565b610bcb565b6102497f65d7a28e3265b37a6474929f336521b332c1681b933f6cb9f3376673440d862a81565b60006001600160e01b03198216635a05180f60e01b14806104d757506104d782610c8f565b92915050565b6060600580546104ec90611b5d565b80601f016020809104026020016040519081016040528092919081815260200182805461051890611b5d565b80156105655780601f1061053a57610100808354040283529160200191610565565b820191906000526020600020905b81548152906001019060200180831161054857829003601f168201915b5050505050905090565b60003361057d818585610cc4565b5060019392505050565b600033610595858285610de8565b6105a0858585610e62565b506001949350505050565b6000828152602081905260409020600101546105c68161103b565b6105d08383611045565b505050565b6001600160a01b038116331461064a5760405162461bcd60e51b815260206004820152602f60248201527f416363657373436f6e74726f6c3a2063616e206f6e6c792072656e6f756e636560448201526e103937b632b9903337b91039b2b63360891b60648201526084015b60405180910390fd5b6106548282611067565b5050565b60003361057d81858561066b8383610bcb565b6106759190611acc565b610cc4565b6106a47f65d7a28e3265b37a6474929f336521b332c1681b933f6cb9f3376673440d862a336108a4565b6107165760405162461bcd60e51b815260206004820152603960248201527f45524332305072657365744d696e7465725061757365723a206d75737420686160448201527f76652070617573657220726f6c6520746f20756e7061757365000000000000006064820152608401610641565b61071e611089565b565b61074a7f9f2df0fed2c77648de5860a4cc508cd0818c85b8b8a1ab4ceeef8d981c8956a6336108a4565b6107b55760405162461bcd60e51b815260206004820152603660248201527f45524332305072657365744d696e7465725061757365723a206d7573742068616044820152751d99481b5a5b9d195c881c9bdb19481d1bc81b5a5b9d60521b6064820152608401610641565b61065482826110db565b6107c933826111c6565b50565b6107d7823383610de8565b61065482826111c6565b61080b7f65d7a28e3265b37a6474929f336521b332c1681b933f6cb9f3376673440d862a336108a4565b61087d5760405162461bcd60e51b815260206004820152603760248201527f45524332305072657365744d696e7465725061757365723a206d75737420686160448201527f76652070617573657220726f6c6520746f2070617573650000000000000000006064820152608401610641565b61071e611320565b600082815260016020526040812061089d908361135d565b9392505050565b6000918252602082815260408084206001600160a01b0393909316845291905290205460ff1690565b6060600680546104ec90611b5d565b600033816108ea8286610bcb565b90508381101561094a5760405162461bcd60e51b815260206004820152602560248201527f45524332303a2064656372656173656420616c6c6f77616e63652062656c6f77604482015264207a65726f60d81b6064820152608401610641565b6105a08286868403610cc4565b60003361057d818585610e62565b60008181526001602052604081206104d790611369565b428410156109cc5760405162461bcd60e51b815260206004820152601860248201527f4552433230576974685065726d69743a204558504952454400000000000000006044820152606401610641565b6008546001600160a01b038816600090815260096020526040812080549192917f6e71edae12b1b97f4d1f60370fef10105fa2faae0126114a169c64845d6126c9918b918b918b919087610a1f83611b98565b909155506040805160208101969096526001600160a01b0394851690860152929091166060840152608083015260a082015260c0810187905260e00160405160208183030381529060405280519060200120604051602001610a9892919061190160f01b81526002810192909252602282015260420190565b60408051601f198184030181528282528051602091820120600080855291840180845281905260ff88169284019290925260608301869052608083018590529092509060019060a0016020604051602081039080840390855afa158015610b03573d6000803e3d6000fd5b5050604051601f1901519150506001600160a01b03811615801590610b395750886001600160a01b0316816001600160a01b0316145b610b905760405162461bcd60e51b815260206004820152602260248201527f4552433230576974685065726d69743a20494e56414c49445f5349474e415455604482015261524560f01b6064820152608401610641565b610b9b898989610cc4565b505050505050505050565b600082815260208190526040902060010154610bc18161103b565b6105d08383611067565b6001600160a01b03918216600090815260036020908152604080832093909416825291909152205490565b610c0082826108a4565b610654576000828152602081815260408083206001600160a01b03851684529091529020805460ff19166001179055610c363390565b6001600160a01b0316816001600160a01b0316837f2f8788117e7eff1d82e926ec794901d17c78024a50270940304540a733656f0d60405160405180910390a45050565b600061089d836001600160a01b038416611373565b60006001600160e01b03198216637965db0b60e01b14806104d757506301ffc9a760e01b6001600160e01b03198316146104d7565b6001600160a01b038316610d265760405162461bcd60e51b8152602060048201526024808201527f45524332303a20617070726f76652066726f6d20746865207a65726f206164646044820152637265737360e01b6064820152608401610641565b6001600160a01b038216610d875760405162461bcd60e51b815260206004820152602260248201527f45524332303a20617070726f766520746f20746865207a65726f206164647265604482015261737360f01b6064820152608401610641565b6001600160a01b0383811660008181526003602090815260408083209487168084529482529182902085905590518481527f8c5be1e5ebec7d5bd14f71427d1e84f3dd0314c0f7b2291e5b200ac8c7c3b925910160405180910390a3505050565b6000610df48484610bcb565b90506000198114610e5c5781811015610e4f5760405162461bcd60e51b815260206004820152601d60248201527f45524332303a20696e73756666696369656e7420616c6c6f77616e63650000006044820152606401610641565b610e5c8484848403610cc4565b50505050565b6001600160a01b038316610ec65760405162461bcd60e51b815260206004820152602560248201527f45524332303a207472616e736665722066726f6d20746865207a65726f206164604482015264647265737360d81b6064820152608401610641565b6001600160a01b038216610f285760405162461bcd60e51b815260206004820152602360248201527f45524332303a207472616e7366657220746f20746865207a65726f206164647260448201526265737360e81b6064820152608401610641565b610f338383836113c2565b6001600160a01b03831660009081526002602052604090205481811015610fab5760405162461bcd60e51b815260206004820152602660248201527f45524332303a207472616e7366657220616d6f756e7420657863656564732062604482015265616c616e636560d01b6064820152608401610641565b6001600160a01b03808516600090815260026020526040808220858503905591851681529081208054849290610fe2908490611acc565b92505081905550826001600160a01b0316846001600160a01b03167fddf252ad1be2c89b69c2b068fc378daa952ba7f163c4a11628f55a4df523b3ef8460405161102e91815260200190565b60405180910390a3610e5c565b6107c981336113cd565b61104f8282610bf6565b60008281526001602052604090206105d09082610c7a565b6110718282611431565b60008281526001602052604090206105d09082611496565b6110916114ab565b6007805460ff191690557f5db9ee0a495bf2e6ff9c91a7834c1ba4fdd244a5e8aa4e537bd38aeae4b073aa335b6040516001600160a01b03909116815260200160405180910390a1565b6001600160a01b0382166111315760405162461bcd60e51b815260206004820152601f60248201527f45524332303a206d696e7420746f20746865207a65726f2061646472657373006044820152606401610641565b61113d600083836113c2565b806004600082825461114f9190611acc565b90915550506001600160a01b0382166000908152600260205260408120805483929061117c908490611acc565b90915550506040518181526001600160a01b038316906000907fddf252ad1be2c89b69c2b068fc378daa952ba7f163c4a11628f55a4df523b3ef9060200160405180910390a35050565b6001600160a01b0382166112265760405162461bcd60e51b815260206004820152602160248201527f45524332303a206275726e2066726f6d20746865207a65726f206164647265736044820152607360f81b6064820152608401610641565b611232826000836113c2565b6001600160a01b038216600090815260026020526040902054818110156112a65760405162461bcd60e51b815260206004820152602260248201527f45524332303a206275726e20616d6f756e7420657863656564732062616c616e604482015261636560f01b6064820152608401610641565b6001600160a01b03831660009081526002602052604081208383039055600480548492906112d5908490611b03565b90915550506040518281526000906001600160a01b038516907fddf252ad1be2c89b69c2b068fc378daa952ba7f163c4a11628f55a4df523b3ef9060200160405180910390a3505050565b6113286114f4565b6007805460ff191660011790557f62e78cea01bee320cd4e420270b5ea74000d11b0c9f74754ebdbfc544b05a2586110be3390565b600061089d838361153a565b60006104d7825490565b60008181526001830160205260408120546113ba575081546001818101845560008481526020808220909301849055845484825282860190935260409020919091556104d7565b5060006104d7565b6105d0838383611564565b6113d782826108a4565b610654576113ef816001600160a01b031660146115ca565b6113fa8360206115ca565b60405160200161140b929190611a24565b60408051601f198184030181529082905262461bcd60e51b825261064191600401611a99565b61143b82826108a4565b15610654576000828152602081815260408083206001600160a01b0385168085529252808320805460ff1916905551339285917ff6391f5c32d9c69d2a47ea670b442974b53935d1edc7fd64eb21e047a839171b9190a45050565b600061089d836001600160a01b038416611766565b60075460ff1661071e5760405162461bcd60e51b815260206004820152601460248201527314185d5cd8589b194e881b9bdd081c185d5cd95960621b6044820152606401610641565b60075460ff161561071e5760405162461bcd60e51b815260206004820152601060248201526f14185d5cd8589b194e881c185d5cd95960821b6044820152606401610641565b600082600001828154811061155157611551611bdf565b9060005260206000200154905092915050565b60075460ff16156105d05760405162461bcd60e51b815260206004820152602a60248201527f45524332305061757361626c653a20746f6b656e207472616e736665722077686044820152691a5b19481c185d5cd95960b21b6064820152608401610641565b606060006115d9836002611ae4565b6115e4906002611acc565b67ffffffffffffffff8111156115fc576115fc611bf5565b6040519080825280601f01601f191660200182016040528015611626576020820181803683370190505b509050600360fc1b8160008151811061164157611641611bdf565b60200101906001600160f81b031916908160001a905350600f60fb1b8160018151811061167057611670611bdf565b60200101906001600160f81b031916908160001a9053506000611694846002611ae4565b61169f906001611acc565b90505b6001811115611717576f181899199a1a9b1b9c1cb0b131b232b360811b85600f16601081106116d3576116d3611bdf565b1a60f81b8282815181106116e9576116e9611bdf565b60200101906001600160f81b031916908160001a90535060049490941c9361171081611b46565b90506116a2565b50831561089d5760405162461bcd60e51b815260206004820181905260248201527f537472696e67733a20686578206c656e67746820696e73756666696369656e746044820152606401610641565b6000818152600183016020526040812054801561184f57600061178a600183611b03565b855490915060009061179e90600190611b03565b90508181146118035760008660000182815481106117be576117be611bdf565b90600052602060002001549050808760000184815481106117e1576117e1611bdf565b6000918252602080832090910192909255918252600188019052604090208390555b855486908061181457611814611bc9565b6001900381819060005260206000200160009055905585600101600086815260200190815260200160002060009055600193505050506104d7565b60009150506104d7565b80356001600160a01b038116811461187057600080fd5b919050565b60006020828403121561188757600080fd5b61089d82611859565b600080604083850312156118a357600080fd5b6118ac83611859565b91506118ba60208401611859565b90509250929050565b6000806000606084860312156118d857600080fd5b6118e184611859565b92506118ef60208501611859565b9150604084013590509250925092565b600080600080600080600060e0888a03121561191a57600080fd5b61192388611859565b965061193160208901611859565b95506040880135945060608801359350608088013560ff8116811461195557600080fd5b9699959850939692959460a0840135945060c09093013592915050565b6000806040838503121561198557600080fd5b61198e83611859565b946020939093013593505050565b6000602082840312156119ae57600080fd5b5035919050565b600080604083850312156119c857600080fd5b823591506118ba60208401611859565b600080604083850312156119eb57600080fd5b50508035926020909101359150565b600060208284031215611a0c57600080fd5b81356001600160e01b03198116811461089d57600080fd5b7f416363657373436f6e74726f6c3a206163636f756e7420000000000000000000815260008351611a5c816017850160208801611b1a565b7001034b99036b4b9b9b4b733903937b6329607d1b6017918401918201528351611a8d816028840160208801611b1a565b01602801949350505050565b6020815260008251806020840152611ab8816040850160208701611b1a565b601f01601f19169190910160400192915050565b60008219821115611adf57611adf611bb3565b500190565b6000816000190483118215151615611afe57611afe611bb3565b500290565b600082821015611b1557611b15611bb3565b500390565b60005b83811015611b35578181015183820152602001611b1d565b83811115610e5c5750506000910152565b600081611b5557611b55611bb3565b506000190190565b600181811c90821680611b7157607f821691505b60208210811415611b9257634e487b7160e01b600052602260045260246000fd5b50919050565b6000600019821415611bac57611bac611bb3565b5060010190565b634e487b7160e01b600052601160045260246000fd5b634e487b7160e01b600052603160045260246000fd5b634e487b7160e01b600052603260045260246000fd5b634e487b7160e01b600052604160045260246000fdfea26469706673582212201b0599e1a9272c49322734935e3a23dea51c9e2a693b8ae72961937c8cd66dcd64736f6c63430008060033",
  "linkReferences": {},
  "deployedLinkReferences": {}
}