{
  "_format": "hh-sol-artifact-1",
  "contractName": "BookStore",
  "sourceName": "contracts/BookStore.sol",
  "abi": [
    {
      "inputs": [
        {
          "internalType": "uint256",
          "name": "count",
          "type": "uint256"
        }
      ],
      "name": "AllCopiesReturned",
      "type": "error"
    },
    {
      "inputs": [],
      "name": "BookAlreadyExists",
      "type": "error"
    },
    {
      "inputs": [],
      "name": "BookNotExisting",
      "type": "error"
    },
    {
      "inputs": [],
      "name": "BookOutOfStock",
      "type": "error"
    },
    {
      "anonymous": false,
      "inputs": [
        {
          "indexed": true,
          "internalType": "string",
          "name": "name",
          "type": "string"
        },
        {
          "indexed": true,
          "internalType": "address",
          "name": "renter",
          "type": "address"
        }
      ],
      "name": "BookRented",
      "type": "event"
    },
    {
      "anonymous": false,
      "inputs": [
        {
          "indexed": true,
          "internalType": "string",
          "name": "name",
          "type": "string"
        },
        {
          "indexed": true,
          "internalType": "address",
          "name": "renter",
          "type": "address"
        }
      ],
      "name": "BookReturned",
      "type": "event"
    },
    {
      "anonymous": false,
      "inputs": [
        {
          "indexed": true,
          "internalType": "string",
          "name": "name",
          "type": "string"
        },
        {
          "indexed": false,
          "internalType": "uint256",
          "name": "count",
          "type": "uint256"
        }
      ],
      "name": "NewBookAdded",
      "type": "event"
    },
    {
      "inputs": [
        {
          "internalType": "string",
          "name": "_name",
          "type": "string"
        },
        {
          "internalType": "uint256",
          "name": "_count",
          "type": "uint256"
        }
      ],
      "name": "addBook",
      "outputs": [],
      "stateMutability": "nonpayable",
      "type": "function"
    },
    {
      "inputs": [
        {
          "internalType": "uint256",
          "name": "",
          "type": "uint256"
        }
      ],
      "name": "availableBooks",
      "outputs": [
        {
          "internalType": "string",
          "name": "",
          "type": "string"
        }
      ],
      "stateMutability": "view",
      "type": "function"
    },
    {
      "inputs": [
        {
          "internalType": "string",
          "name": "",
          "type": "string"
        }
      ],
      "name": "checkBook",
      "outputs": [
        {
          "internalType": "bool",
          "name": "",
          "type": "bool"
        }
      ],
      "stateMutability": "view",
      "type": "function"
    },
    {
      "inputs": [
        {
          "internalType": "string",
          "name": "",
          "type": "string"
        }
      ],
      "name": "checkBookCount",
      "outputs": [
        {
          "internalType": "uint256",
          "name": "",
          "type": "uint256"
        }
      ],
      "stateMutability": "view",
      "type": "function"
    },
    {
      "inputs": [
        {
          "internalType": "string",
          "name": "_name",
          "type": "string"
        }
      ],
      "name": "rentBook",
      "outputs": [],
      "stateMutability": "nonpayable",
      "type": "function"
    },
    {
      "inputs": [
        {
          "internalType": "string",
          "name": "_name",
          "type": "string"
        }
      ],
      "name": "returnBook",
      "outputs": [],
      "stateMutability": "nonpayable",
      "type": "function"
    },
    {
      "inputs": [],
      "name": "showAvailable",
      "outputs": [
        {
          "internalType": "string[]",
          "name": "",
          "type": "string[]"
        }
      ],
      "stateMutability": "view",
      "type": "function"
    },
    {
      "inputs": [
        {
          "internalType": "string",
          "name": "_name",
          "type": "string"
        }
      ],
      "name": "showRenters",
      "outputs": [
        {
          "internalType": "address[]",
          "name": "",
          "type": "address[]"
        }
      ],
      "stateMutability": "view",
      "type": "function"
    }
  ],
  "bytecode": "0x608060405234801561001057600080fd5b50610d18806100206000396000f3fe608060405234801561001057600080fd5b50600436106100885760003560e01c80639452f09d1161005b5780639452f09d146100f1578063bd4f133014610111578063ed33f6491461014f578063f9a96a801461018857600080fd5b80631ef49a8c1461008d5780635a021139146100a2578063637a3872146100cb57806380ee187d146100de575b600080fd5b6100a061009b3660046109ce565b61019d565b005b6100b56100b0366004610b0d565b6102f2565b6040516100c29190610c32565b60405180910390f35b6100a06100d9366004610a10565b61039e565b6100a06100ec3660046109ce565b61057f565b6101046100ff3660046109ce565b6106ca565b6040516100c29190610b83565b61013f61011f366004610a5c565b805160208183018101805160018252928201919093012091525460ff1681565b60405190151581526020016100c2565b61017a61015d366004610a5c565b805160208183018101805160028252928201919093012091525481565b6040519081526020016100c2565b61019061074a565b6040516100c29190610bd0565b8181600182826040516101b1929190610b73565b9081526040519081900360200190205460ff166101e15760405163104ad4af60e21b815260040160405180910390fd5b600384846040516101f3929190610b73565b90815260200160405180910390206001015460028585604051610217929190610b73565b9081526020016040518091039020541415610274576003848460405161023e929190610b73565b90815260405190819003602001812060010154637ed5445160e11b825261026b9160040190815260200190565b60405180910390fd5b600160028585604051610288929190610b73565b908152602001604051809103902060008282546102a59190610c4c565b909155505060405133906102bc9086908690610b73565b604051908190038120907ff1b2f3d040d6eaa2f46fc6969cded1c5e090aed7039a4e447f1f02aeda4067c590600090a350505050565b6000818154811061030257600080fd5b90600052602060002001600091509050805461031d90610c7b565b80601f016020809104026020016040519081016040528092919081815260200182805461034990610c7b565b80156103965780601f1061036b57610100808354040283529160200191610396565b820191906000526020600020905b81548152906001019060200180831161037957829003601f168201915b505050505081565b600183836040516103b0929190610b73565b9081526040519081900360200190205460ff16156103e15760405163172a6f3b60e21b815260040160405180910390fd5b60606000604051806060016040528086868080601f01602080910402602001604051908101604052809392919081815260200183838082843760009201829052509385525050506020820186905260409091018490528054600181018255908052909150610472907f290decd9548b62a8d60345a988386fc84ba6bc95484008f6362f93160ef3e563018686610823565b506001808686604051610486929190610b73565b908152604051908190036020018120805492151560ff199093169290921790915583906002906104b99088908890610b73565b90815260200160405180910390208190555080600386866040516104de929190610b73565b908152602001604051809103902060008201518160000190805190602001906105089291906108a7565b5060208281015160018301556040830151805161052b926002850192019061091b565b505060405161053e915086908690610b73565b604051908190038120848252907f0608ced071989c87e8d0772d5c7b602aae42380b59ebdfa3641591884b8985159060200160405180910390a25050505050565b818160018282604051610593929190610b73565b9081526040519081900360200190205460ff166105c35760405163104ad4af60e21b815260040160405180910390fd5b6001600285856040516105d7929190610b73565b908152602001604051809103902054101561060557604051630326266960e01b815260040160405180910390fd5b600160028585604051610619929190610b73565b908152602001604051809103902060008282546106369190610c64565b909155505060405160039061064e9086908690610b73565b9081526040519081900360209081018220600201805460018101825560009182529190200180546001600160a01b03191633908117909155906106949086908690610b73565b604051908190038120907f0fb11443e58e543bd5d0a89fa2d48ca98beaa703edd7f05d32f518f1a084e54490600090a350505050565b6060600383836040516106de929190610b73565b908152604080519182900360209081018320600201805480830285018301909352828452919083018282801561073d57602002820191906000526020600020905b81546001600160a01b0316815260019091019060200180831161071f575b5050505050905092915050565b60606000805480602002602001604051908101604052809291908181526020016000905b8282101561081a57838290600052602060002001805461078d90610c7b565b80601f01602080910402602001604051908101604052809291908181526020018280546107b990610c7b565b80156108065780601f106107db57610100808354040283529160200191610806565b820191906000526020600020905b8154815290600101906020018083116107e957829003601f168201915b50505050508152602001906001019061076e565b50505050905090565b82805461082f90610c7b565b90600052602060002090601f0160209004810192826108515760008555610897565b82601f1061086a5782800160ff19823516178555610897565b82800160010185558215610897579182015b8281111561089757823582559160200191906001019061087c565b506108a3929150610970565b5090565b8280546108b390610c7b565b90600052602060002090601f0160209004810192826108d55760008555610897565b82601f106108ee57805160ff1916838001178555610897565b82800160010185558215610897579182015b82811115610897578251825591602001919060010190610900565b828054828255906000526020600020908101928215610897579160200282015b8281111561089757825182546001600160a01b0319166001600160a01b0390911617825560209092019160019091019061093b565b5b808211156108a35760008155600101610971565b60008083601f84011261099757600080fd5b50813567ffffffffffffffff8111156109af57600080fd5b6020830191508360208285010111156109c757600080fd5b9250929050565b600080602083850312156109e157600080fd5b823567ffffffffffffffff8111156109f857600080fd5b610a0485828601610985565b90969095509350505050565b600080600060408486031215610a2557600080fd5b833567ffffffffffffffff811115610a3c57600080fd5b610a4886828701610985565b909790965060209590950135949350505050565b600060208284031215610a6e57600080fd5b813567ffffffffffffffff80821115610a8657600080fd5b818401915084601f830112610a9a57600080fd5b813581811115610aac57610aac610ccc565b604051601f8201601f19908116603f01168101908382118183101715610ad457610ad4610ccc565b81604052828152876020848701011115610aed57600080fd5b826020860160208301376000928101602001929092525095945050505050565b600060208284031215610b1f57600080fd5b5035919050565b6000815180845260005b81811015610b4c57602081850181015186830182015201610b30565b81811115610b5e576000602083870101525b50601f01601f19169290920160200192915050565b8183823760009101908152919050565b6020808252825182820181905260009190848201906040850190845b81811015610bc45783516001600160a01b031683529284019291840191600101610b9f565b50909695505050505050565b6000602080830181845280855180835260408601915060408160051b870101925083870160005b82811015610c2557603f19888603018452610c13858351610b26565b94509285019290850190600101610bf7565b5092979650505050505050565b602081526000610c456020830184610b26565b9392505050565b60008219821115610c5f57610c5f610cb6565b500190565b600082821015610c7657610c76610cb6565b500390565b600181811c90821680610c8f57607f821691505b60208210811415610cb057634e487b7160e01b600052602260045260246000fd5b50919050565b634e487b7160e01b600052601160045260246000fd5b634e487b7160e01b600052604160045260246000fdfea2646970667358221220a618bb3e74c14e17224c215320cfda43accf60e0cfbefeb5109cc90ae126f44964736f6c63430008060033",
  "linkReferences": {},
  "deployedLinkReferences": {}
}